:020000040000FA
:06000000D7EF03F012002F
:020006000000F8
:0600080083EF01F012007D
:02000E001200DE
:0800180095EF02F01200D9CFB0
:10002000E6FFE1CFD9FFE652200EE66EE66A640EE7
:10003000E66E000EE66E83EC03F0E552E552E55203
:10004000E552F60ED36ED08EF28EF28CF288F19CD1
:10005000F292F19AF090F08CF0869E9AAB889F8A8B
:100060009D8AF286F290F180F184F294F28AF30E86
:10007000D76EC90ED66E860ED56EC16A030E936E0C
:100080009268080EE66EE66A7C0EE66EEDEC02F013
:10009000E552E552E552840E176E070E186E196A86
:1000A00017C0E6FF18C0E6FF19C0E6FF32EC03F008
:1000B000E552E552E5520001606B616B626B636B68
:0C00C000FFD7E552E552E7CFD9FF120050
:0400CC000D7E0F6A2C
:1000D00055EC01F06DEC01F00FB6FDEF00F00FA252
:1000E0000AD00FAA03D00FBEFDEF00F00FA409EF56
:1000F00001F006EF01F00FAA05D00FAC09EF01F0F7
:1001000006EF01F00FA00AD00FA808D00FBE04D050
:100110000FA402D012EF01F016EF01F0126A036A89
:100120000D50085C116E10E305C013F006C000F01E
:1001300007C001F008C010F00AC005F00BC006F0BF
:100140000CC007F00F3A09D00AC013F00BC000F042
:100150000CC001F00DC010F0116C0F9E0FBC0F8E83
:1001600010C002F00FB045EF01F01A0E116045EF1C
:1001700001F0026A086A0FA408D0056C061E071E6B
:10018000081EE86A0622072208220FAC08D0136C6A
:10019000001E011E021EE86A002201220222046AD9
:1001A000115207E008340732063205320432112EAC
:1001B000F9D7055013260650002207500122085097
:1001C000022204C012F00F9E02AE0BD0126C131E5E
:1001D000001E011E021EE86A1322002201220222D2
:1001E0000F8E02A006D0D8800132003213321232B4
:1001F000102A10C002F019EF01F07F0E086EFF0EFA
:10020000076E066E056E12007F0E0FBEFF0E086EA3
:1002100002D07F0E086E800E076E066A056AF3D75D
:100220000FAE04D0800E086E076AF7D7086A076A17
:10023000F4D70150001013101210F8E003BEF0D7ED
:1002400001BE0CD002500310EBE0D89012361336EA
:10025000003601360206D8A00306F2D70350D4E1D7
:100260000228D2E012AE11D07F0E121402E113A0C8
:100270000CD0132AE86A0022012207E3D880013259
:1002800000321332022A0228BFE00250C9E013C034
:1002900005F000C006F00134076E0230086E073228
:1002A000089E0FBE088E03EF01F00736083602E302
:1002B0000F840F7E06E10F80086A076A066A056AE6
:1002C0001200082803E0D88007321200D8900732C5
:1002D00002E10F8212000F8612000C360D3602E387
:1002E0000F8C0F7E06E10F880D6A0C6A0B6A0A6A92
:1002F00012000D2803E0D8800C321200D8900C3286
:06030000EAE10F8A120081
:0A030600DACFE4FFE2CFDAFFE9CF1F
:10031000E4FFEACFE4FFF6CFE4FFF7CFE4FFF5CF49
:10032000E4FFF3CFE4FFF4CFE4FFFACFE4FF00EE05
:1003300000F0140EE80403E3EECFE4FFFBD700EE79
:1003400017F0030EE80403E3EECFE4FFFBD7E65219
:10035000D9CFE6FFE1CFD9FF020EE1269EAA73D0E6
:100360009E9A64EC03F0DF6E470EDF5C29E1818426
:100370007B0E146E070E156E166A14C0E6FF15C0CC
:10038000E6FF16C0E6FF32EC03F0E552E552E55217
:100390000A6A0B6AC00E0C6E3F0E0D6E60C005F04F
:1003A00061C006F062C007F063C008F067EC00F0BF
:1003B00005C060F006C061F007C062F008C063F0DD
:1003C000530EDF5C40E1010E146E810EE96E0F0EDC
:1003D000EA6EEF50080BE842E842E842D880145435
:1003E000010BF36EF46EF346F346F346F70EEF148B
:1003F000F310EF6EF450730E146E070E156E166A3E
:1004000014C0E6FF15C0E6FF16C0E6FF32EC03F0AD
:10041000E552E552E5520A6A0B6AC00E0C6E3F0EB9
:100420000D6E60C005F061C006F062C007F063C0E9
:1004300008F066EC00F005C060F006C061F007C08F
:1004400062F008C063F0F2A212D0F2928176730ECD
:10045000146E070E156E166A14C0E6FF15C0E6FF8F
:1004600016C0E6FF32EC03F0E552E552E552F2A089
:100470000BD0F2908150080B01E0010EFF0DF32824
:10048000E8B08186E8A08196F0A00BD0F090815072
:10049000080B01E0010EFF0DF328E8B08186E8A00B
:1004A0008196F2A415D0F294F30ED76EC90ED66ED3
:1004B000680E146E070E156E166A14C0E6FF15C09E
:1004C000E6FF16C0E6FF32EC03F0E552E552E552D6
:1004D000020EE15C02E2E16AE552E16EE552E7CF2D
:1004E000D9FFE55200EE19F0030EE80403E3E5CF6F
:1004F000EDFFFBD700EE13F0140EE80403E3E5CFA5
:10050000EDFFFBD7E5CFFAFFE5CFF4FFE5CFF3FF33
:10051000E5CFF5FFE5CFF7FFE5CFF6FFE5CFEAFF43
:10052000E5CFE9FFE5CFDAFF1100DACFE4FFE2CF54
:0C053000DAFFE652E552E5CFDAFF1100D9
:04053C00060EF66E43
:10054000000EF76E000EF86E00010900F550896F7D
:100550000900F5508A6F03E1896701D03DD0090099
:10056000F550846F0900F550856F0900F550866FCE
:1005700009000900F550E96E0900F550EA6E09001E
:1005800009000900F550876F0900F550886F0900D0
:100590000900F6CF8BF0F7CF8CF0F8CF8DF084C048
:1005A000F6FF85C0F7FF86C0F8FF0001875302E120
:1005B000885307E00900F550EE6E8707F8E28807D8
:1005C000F9D78BC0F6FF8CC0F7FF8DC0F8FF000194
:0A05D0008907000E8A5BBFD71200F6
:0605DA00D9CFE6FFDACFE5
:1005E000E6FFE1CFD9FFE2CFDAFFAC6AAB6AFD0EDE
:1005F000DBB0AC88DBA202D0AC8CAB8CDBB4AC8EB5
:10060000DBA602D0AB8801D0AB8ADBB8AC849E9865
:10061000DBBAAB86DBAC02D09D8A01D09D9A9E9A54
:10062000DBAE02D09D8801D09D98FB0EDB50AF6EF3
:10063000FB0EFC0EDBCF18F018C017F0186A17502D
:10064000B06EAC8AAB8E949C948EAC50100B04E0D0
:10065000AC50800B01E1948CE552E5CFDAFFE7CF97
:04066000D9FF1200AC
:0C066400D9CFE6FFDACFE6FFE1CFD9FFE7
:10067000E2CFDAFFACA2FED7FB0EDBCFF6FFFC0E1B
:10068000DBCFF7FFFD0EDBCFF8FF0800F550E66E7D
:100690009DEC03F0E552D950FB0FE96EFF0EDA2016
:1006A000EA6EEFCFF6FFEE2AEFCFF7FF000EEE2255
:1006B000EFCFF8FFEE220800F550DCE1E552E5CF80
:0806C000DAFFE7CFD9FF1200B9
:0806C800D9CFE6FFDACFE6FF0F
:1006D000E1CFD9FFE2CFDAFFE652F20E00018E172A
:1006E000ABAC03D08E91ABB08E81ABB48E85ABB288
:1006F0008E87AE50DF6EDF50E552E552E5CFDAFF70
:06070000E7CFD9FF120053
:0A070600FE0EE3CFE9FFFF0EE3CF84
:10071000EAFFE9CFF3FFEACFF4FFFB0EE35003E17A
:10072000FC0EE35009E0FB0EE30602E2FC0EE306DA
:0A073000FD0EE350EE6EF1D712004B
:06073A00D9CFE6FFDACF83
:10074000E6FFE1CFD9FFE2CFDAFFACAC04D0AC904A
:1007500000018EB3AC80FD0EDB50AD6EE552E5CFEF
:08076000DAFFE7CFD9FF120018
:080768005469636B2074696D94
:10077000657200506C6F70200A0D0053616C7574C7
:0E078000200A0D0048656C6C6F20210A0D00E8
:02078E00000E5B
:10079000F36E00EE00F00D0E01D81200EA6002D0F8
:0E07A000EE6AFCD7F350E9601200EE6AFCD757
:0207AE001CEE3F
:1007B00000F02CEE00F0F86A0F9C9EEC02F007ECC3
:0A07C00000F00FEC00F0FBD7120070
:020000040030CA
:0100010008F6
:010003001EDE
:010005008278
:00000001FF
