:020000040000FA
:060000003AEF05F01200CA
:020006001200E6
:060008004CEF04F01200B1
:02000E000000F0
:08001800D2EF04F01200F19C8C
:10002000F288F18AF08CF086F286F290F180EE0E82
:10003000D36ED08EF28EF28C9580958293809382CF
:100040003EEC00F0030EE66E080EE66E000EE66E65
:10005000E66A240EE66E020EE66EE66AE66A64EC76
:0E00600000F00B6E080EE15E0B50FFD7120091
:02006E0001008F
:0C0070000E0000006A000000020000000A
:04007C00800EE66E9E
:100080002DDAE552030E706E400E716E726A200E0C
:10009000736E779E779C606A0F01506B006B016BEB
:1000A000046B056B086B096B0C6B0D6B106B116BA4
:1000B000146B156B186B196B19971C6B1D6B1D97C7
:1000C000E66A0CDAE5521200D9CFE6FFE1CFD9FF9C
:1000D000190EE126D950060FE96EDACFEAFF400E7D
:1000E000EE6E0F0EED6ED950080FE96EDACFEAFF13
:1000F000300EEE6E0F0EED6ED9500A0FE96EDACFAC
:10010000EAFF200EEE6E0F0EED6EDF6A020EDF5C70
:1001100001E3D1D0D950060F0B6EDACF0CF0DF50CF
:10012000020D0B50F324E96E0C50F420EA6E020E1F
:10013000EECFDBFF030EEDCFDBFF020EDBCF06F0D1
:10014000030EDBCF07F0040E06C0DBFF050E07C071
:10015000DBFF020EDBCFE9FF030EDBCFEAFFEF5040
:10016000080B01E0A6D0FC0E0B6E020EDBCFE9FF00
:10017000030EDBCFEAFF0B50EF16F70EDB50030B3D
:100180000B6E020EDBCFE9FF030EDBCFEAFF0B5055
:10019000EF12F70EDBAC08D0F80EDB504009E76E2B
:1001A000180EE7CFDBFF06D0F80EDB50E76E180E17
:1001B000E7CFDBFF050EE76E020EDBCFE9FF030E94
:1001C000DBCFEAFFE750E926000EEA22180EDBCF6C
:1001D000EFFFF70EDBAA06D0010EF36E180EF3CF79
:1001E000DBFF02D0180EDB6ADBCFE6FFD950FB0F36
:1001F000E96EFF0EDA20EA6EEECFE6FFEECFE6FF05
:10020000EECFE6FFEFCFE6FF010EE76E020EDBCF8B
:100210000BF0030EDBCF0CF0E7500B26000E0C2288
:100220000BC0E6FF0CC0E6FF6ED90D6E070EE15E57
:100230000D50D950020FE96EDACFEAFF060EEE2616
:10024000000EED22010EDB6AF80EDB50F36E010E9C
:10025000DBCFF4FFF350F45C1AE2F90EDBCFE9FFD9
:10026000DB2AFA0EDBCFEAFF01E3DB2AEF50E66E72
:10027000020EDBCFE9FFDB2A030EDBCFEAFF01E34F
:10028000DB2AE552E750EF6E010EDB2ADDD7040EC4
:10029000DBCFE9FF050EDBCFEAFFEF50040B07E1F0
:1002A000040EDBCFE9FF050EDBCFEAFFEF86010E80
:1002B00004D0DF2A2BD7000E00D00B6E190EE15CA4
:1002C00002E2E16AE552E16E0B50E552E7CFD9FF59
:1002D0001200D9CFE6FFE1CFD9FF060EE1260001DB
:1002E0006C6B60AE15D0A49074AE08D0F70EDBCF67
:1002F000E9FFF80EDBCFEAFFEF86749E6C91605049
:10030000010B01E06C81600EDE6E0F0EDD6E23D0FE
:100310000F0150AF1ED0A49274AC08D0F70EDBCF03
:10032000E9FFF80EDBCFEAFFEF86749C070E50154D
:1003300000016C6F020E6C5D07E2F70EDBCFE9FF88
:10034000F80EDBCFEAFFEF8E500EDE6E0F0EDD6E85
:1003500002D0000EB7D0D9CFE9FFDACFEAFF020E04
:10036000EECFDBFF030EEDCFDBFFF70EDBCFE9FFB8
:10037000F80EDBCFEAFFEF6ADECFE9FFDDCFEAFF61
:10038000050EE926000EEA22050EEFCFDBFFDB505B
:100390000F0BE66EF90EDBCFE9FFFA0EDBCFEAFFBB
:1003A000E552E750EF6ED950050FE96EDACFEAFF5C
:1003B000EF50400B08E000D0F70EDBCFE9FFF80E5E
:1003C000DBCFEAFFEF8CDECFE9FFDDCFEAFF020EE5
:1003D000E926000EEA22050EEFCFDBFFD950050F0C
:1003E000E96EDACFEAFFEF50080B0DE0F70EDBCF36
:1003F000E9FFF80EDBCFEAFFEF8A010EF36E050E80
:10040000F3CFDBFF02D0050EDB6ADBCFE6FFFD0E8C
:10041000DBCFE6FFFE0EDBCFE6FFDECF0BF0DDCF5E
:100420000CF0010E0B26000E0C220BC0E6FF0CC0D8
:10043000E6FF49D90D6E050EE15E0D50060EDE2673
:10044000000EDD22F90EDBCFE9FFFA0EDBCFEAFF6B
:10045000050EEFCFDBFF040EDB6A050EDB50F36EFB
:10046000040EDBCFF4FFF350F45C19E2DFCFE9FFB9
:10047000DF2A010EDBCFEAFF01E3DB2AEF50E66E55
:10048000FB0EDBCFE9FFDB2AFC0EDBCFEAFF01E34B
:10049000DB2AE552E750EF6E040EDB2ADED7A4AE6E
:1004A00008D0F70EDBCFE9FFF80EDBCFEAFFEF88CD
:1004B000A49E020EDBCFE9FF030EDBCFEAFFEF9E27
:1004C000010E00D00B6E060EE15C02E2E16AE5521D
:1004D000E16E0B50E552E7CFD9FF1200D9CFE6FF0E
:1004E000E1CFD9FF1F0E6F16FE0EDB506F12E00E2C
:1004F0006F140B6EFE0EDB500B5C01E0F8D7E5527B
:10050000E7CFD9FF1200D9CFE6FFE1CFD9FF020E26
:10051000E126D950F90F0B6EFF0EDA200C6E0BC0DE
:10052000DEFF0CC0DDFFF80EDB503BE1DECFE9FF64
:10053000DDCFEAFFEF50E840E840E8401F0BE66EF1
:10054000FD0EDBCFE9FFFE0EDBCFEAFFE552E75001
:10055000EF6EDECFE9FFDDCFEAFFEE52EF50200D68
:10056000F3CF0BF0FD0EDBCFE9FFFE0EDBCFEAFF92
:100570000B50EF12FD0EDB2AFE0E01E3DB2ADECF6D
:10058000E9FFDDCFEAFFEF50200DF350E66EFD0EE0
:10059000DBCFE9FFFE0EDBCFEAFFE552E750EF6E5F
:1005A00088D0DECFE9FFDDCFEAFF020EE926000E9C
:1005B000EA22EF50E00BE838E840E66EFD0EDBCFB4
:1005C000E9FFFE0EDBCFEAFFE552E750EF6EDECF2C
:1005D000E9FFDDCFEAFF030EE926000EEA22EF5025
:1005E000080DF3CF0BF0FD0EDBCFE9FFFE0EDBCFE6
:1005F000EAFF0B50EF12FD0EDB2AFE0E01E3DB2AB1
:10060000DECFE9FFDDCFEAFF020EE926000EEA2287
:10061000EF50080DF350E00BE66EFD0EDBCFE9FF67
:10062000FE0EDBCFEAFFE552E750EF6EFD0EDBCFAB
:10063000E9FFFE0EDBCFEAFFEF86DECFE9FFDDCF7D
:10064000EAFF020EE926000EEA22EF50030B0B6EC2
:10065000FD0EDBCFE9FFFE0EDBCFEAFF0B50EF1202
:10066000FD0EDB2AFE0E01E3DB2ADECFE9FFDDCF44
:10067000EAFFEE52EF50E66EFD0EDBCFE9FFFE0E15
:10068000DBCFEAFFE552E750EF6EFD0EDB2AFE0EF0
:1006900001E3DB2ADECFE9FFDDCFEAFFEF50E66EB4
:1006A000FD0EDBCFE9FFFE0EDBCFEAFFE552E750A0
:1006B000EF6E020EE15C02E2E16AE552E16EE552A4
:1006C000E7CFD9FF1200D9CFE6FFE1CFD9FF020E65
:1006D000E126FB0EDBCFDEFFDBCFDDFFFA0EDB50CA
:1006E0004DE1FD0EDBCFE9FFFE0EDBCFEAFFEF5061
:1006F000080DF350E66EDECFE9FFDDCFEAFFE552ED
:10070000E750EF6EFD0EDBCFE9FFFE0EDBCFEAFF19
:10071000EF50E00BE838E840E66EDECFE9FFDDCFD2
:10072000EAFFEE52E552E750EF6EFD0EDB2AFE0EB9
:1007300001E3DB2AFD0EDBCFE9FFFE0EDBCFEAFF94
:10074000EF50E00BE838E8400B6EDECFE9FFDDCF7D
:10075000EAFF0B50EF12DECFE9FFDDCFEAFF020E1A
:10076000E926000EEA22EF6ADECFE9FFDDCFEAFFDD
:10077000030EE926000EEA22EF6A84D0FD0EDBCFDD
:10078000E9FFFE0EDBCFEAFFEF50200DF350E66EDF
:10079000DECFE9FFDDCFEAFF020EE926000EEA22F6
:1007A000E552E750EF6EFD0EDBCFE9FFFE0EDBCF2B
:1007B000EAFFEF50E840E840E8401F0BE66EDECF6E
:1007C000E9FFDDCFEAFF030EE926000EEA22E5523B
:1007D000E750EF6EFD0EDB2AFE0E01E3DB2AFD0E75
:1007E000DBCFE9FFFE0EDBCFEAFFEF50030B0B6E12
:1007F000DECFE9FFDDCFEAFF020EE926000EEA2296
:100800000B50EF12FD0EDBCFE9FFFE0EDBCFEAFF50
:10081000EF50E00BE840E840E8401F0B0B6EDECFE6
:10082000E9FFDDCFEAFF020EE926000EEA220B50B7
:10083000EF12FD0EDB2AFE0E01E3DB2AFD0EDBCFFD
:10084000E9FFFE0EDBCFEAFFEF50E66EDECFE9FFF9
:10085000DDCFEAFFEE52E552E750EF6EFD0EDB2AE8
:10086000FE0E01E3DB2AFD0EDBCFE9FFFE0EDBCF40
:10087000EAFFEF50E66EDECFE9FFDDCFEAFFE5529B
:10088000E750EF6E020EE15C02E2E16AE552E16ED2
:08089000E552E7CFD9FF120089
:08089800DACFE4FFE2CFDAFF42
:1008A000E9CFE4FFEACFE4FFF6CFE4FFF7CFE4FFC0
:1008B000F5CFE4FFF3CFE4FFF4CFE4FFFACFE4FF9A
:1008C00000EE00F00B0EE80403E3EECFE4FFFBD7ED
:1008D00000EE0BF0030EE80403E3EECFE4FFFBD7DA
:1008E000E652D9CFE6FFE1CFD9FF020EE126A450B0
:1008F000010B03E1A450020B00E09EBA9E9AF2A203
:1009000020D08C50010BDF6E8C50020B01E0010EE9
:10091000E76E010EE7CFDBFF030EE66E020EE66E1A
:10092000D9CFE6FFDACFE6FF220EE66E020EE66EC4
:10093000E66AE66A64EC00F00E6E080EE15E0E50A8
:10094000F292F2B0F290F2B4F294020EE15C02E2A2
:10095000E16AE552E16EE552E7CFD9FFE55200EEDC
:100960000DF0030EE80403E3E5CFEDFFFBD700EE47
:100970000AF00B0EE80403E3E5CFEDFFFBD7E5CF6C
:10098000FAFFE5CFF4FFE5CFF3FFE5CFF5FFE5CFC5
:10099000F7FFE5CFF6FFE5CFEAFFE5CFE9FFE5CFCB
:1009A000DAFF1100DACFE4FFE2CFDAFFE652E552D8
:0609B000E5CFDAFF1100A3
:0A09B6006E0EF66E000EF76E000ED6
:1009C000F86E00010900F550656F0900F550666F7B
:1009D00003E1656701D03DD00900F550606F090063
:1009E000F550616F0900F550626F09000900F5507C
:1009F000E96E0900F550EA6E090009000900F5509A
:100A0000636F0900F550646F09000900F6CF67F0C5
:100A1000F7CF68F0F8CF69F060C0F6FF61C0F7FF6C
:100A200062C0F8FF0001635302E1645307E009006C
:100A3000F550EE6E6307F8E26407F9D767C0F6FF7A
:100A400068C0F7FF69C0F8FF00016507000E665B2C
:040A5000BFD71200FA
:0C0A5400000EF36E00EE00F00D0E01D855
:100A60001200EA6002D0EE6AFCD7F350E96012008F
:040A7000EE6AFCD757
:0C0A74001CEE00F02CEE00F0F86A0A9C6A
:100A8000DBEC04F003EC00F00FEC00F0FBD71200FD
:020000040030CA
:0100010009F5
:01000500807A
:00000001FF
