:020000040000FA
:06000000E6EF03F0120020
:020006000000F8
:06000800CBEF01F0120035
:02000E001200DE
:080018008BEF02F01200D9CFBA
:10002000E6FFE1CFD9FF130EE126D950010FE96EAB
:10003000DACFEAFF620EEE6E690EEE6E740EEE6EB1
:10004000650EEE6E200EEE6E630EEE6E6F0EEE6EB1
:10005000750EEE6E690EEE6E6C0EEE6EEE6E650E49
:10006000EE6E200EEE6E700EEE6E6F0EEE6E690E80
:10007000EE6E6C0EEE6EEE6AF60ED36E936A8182B1
:10008000946A330EE66EE66A7C0EE66EE3EC02F0EE
:10009000E552E552E5527C0EE66EBFEC03F0E55208
:1000A0009C0EE66EBFEC03F0E552410EE66EBFEC2F
:1000B00003F0E552620EE66EBFEC03F0E552C80EA7
:1000C000E66EA8EC03F0E552FE0EE66EBFEC03F020
:1000D000E552940EE66EBFEC03F0E552410EDF6E82
:1000E000C10E176E060E186E196A17C0E6FF18C00B
:1000F000E6FF19C0E6FF28EC03F0E552E552E552B1
:10010000320EE66EA8EC03F0E5527C0EDF5C0EE0EA
:10011000FE0EDF5C06E1800EE66EBFEC03F0E552FA
:1001200005D0DFCFE6FFBFEC03F0E552140EE66E1C
:10013000A8EC03F0E552816A140EE66EA8EC03F019
:10014000E5528182DF2AE1D7130EE15C02E2E16A27
:0C015000E552E16EE552E7CFD9FF120046
:04015C000D7E0F6A9B
:100160009DEC01F0B5EC01F00FB645EF01F00FA2E8
:100170000AD00FAA03D00FBE45EF01F00FA451EF34
:1001800001F04EEF01F00FAA05D00FAC51EF01F0D6
:100190004EEF01F00FA00AD00FA808D00FBE04D078
:1001A0000FA402D05AEF01F05EEF01F0126A036A69
:1001B0000D50085C116E10E305C013F006C000F08E
:1001C00007C001F008C010F00AC005F00BC006F02F
:1001D0000CC007F00F3A09D00AC013F00BC000F0B2
:1001E0000CC001F00DC010F0116C0F9E0FBC0F8EF3
:1001F00010C002F00FB08DEF01F01A0E11608DEFFC
:1002000001F0026A086A0FA408D0056C061E071EDA
:10021000081EE86A0622072208220FAC08D0136CD9
:10022000001E011E021EE86A002201220222046A48
:10023000115207E008340732063205320432112E1B
:10024000F9D7055013260650002207500122085006
:10025000022204C012F00F9E02AE0BD0126C131ECD
:10026000001E011E021EE86A132200220122022241
:100270000F8E02A006D0D880013200321332123223
:10028000102A10C002F061EF01F07F0E086EFF0E21
:10029000076E066E056E12007F0E0FBEFF0E086E13
:1002A00002D07F0E086E800E076E066A056AF3D7CD
:1002B0000FAE04D0800E086E076AF7D7086A076A87
:1002C000F4D70150001013101210F8E003BEF0D75D
:1002D00001BE0CD002500310EBE0D890123613365A
:1002E000003601360206D8A00306F2D70350D4E147
:1002F0000228D2E012AE11D07F0E121402E113A038
:100300000CD0132AE86A0022012207E3D8800132C8
:1003100000321332022A0228BFE00250C9E013C0A3
:1003200005F000C006F00134076E0230086E073297
:10033000089E0FBE088E4BEF01F00736083602E329
:100340000F840F7E06E10F80086A076A066A056A55
:100350001200082803E0D88007321200D890073234
:1003600002E10F8212000F8612000C360D3602E3F6
:100370000F8C0F7E06E10F880D6A0C6A0B6A0A6A01
:1003800012000D2803E0D8800C321200D8900C32F5
:06039000EAE10F8A1200F1
:0A039600DACFE4FFE2CFDAFFE9CF8F
:1003A000E4FFEACFE4FFF6CFE4FFF7CFE4FFF5CFB9
:1003B000E4FFF3CFE4FFF4CFE4FFFACFE4FF00EE75
:1003C00000F0140EE80403E3EECFE4FFFBD700EEE9
:1003D00017F0030EE80403E3EECFE4FFFBD7E65289
:1003E000D9CFE6FFE1CFD9FF020EE1269EAA66D063
:1003F0009E9A89EC03F0DF6E470EDF5C29E1818471
:10040000BA0E146E060E156E166A14C0E6FF15C0FD
:10041000E6FF16C0E6FF28EC03F0E552E552E55290
:100420000A6A0B6AC00E0C6E3F0E0D6E60C005F0BE
:1004300061C006F062C007F063C008F0AFEC00F0E6
:1004400005C060F006C061F007C062F008C063F04C
:10045000530EDF5C29E18186B40E146E060E156E14
:10046000166A14C0E6FF15C0E6FF16C0E6FF28ECCA
:1004700003F0E552E552E5520A6A0B6AC00E0C6EB3
:100480003F0E0D6E60C005F061C006F062C007F05F
:1004900063C008F0AEEC00F005C060F006C061F08B
:1004A00007C062F008C063F0450EDF5C07E1010E93
:1004B000A96EA69EA69CA680A8CFDBFF020EE15CDB
:1004C00002E2E16AE552E16EE552E7CFD9FFE5527B
:1004D00000EE19F0030EE80403E3E5CFEDFFFBD7D0
:1004E00000EE13F0140EE80403E3E5CFEDFFFBD7B5
:1004F000E5CFFAFFE5CFF4FFE5CFF3FFE5CFF5FF5A
:10050000E5CFF7FFE5CFF6FFE5CFEAFFE5CFE9FF5F
:10051000E5CFDAFF1100DACFE4FFE2CFDAFFE652EF
:08052000E552E5CFDAFF1100FE
:08052800060EF66E000EF76EE0
:10053000000EF86E00010900F550896F0900F550B2
:100540008A6F03E1896701D03DD00900F550846FBF
:100550000900F550856F0900F550866F0900090004
:10056000F550E96E0900F550EA6E0900090009002E
:10057000F550876F0900F550886F09000900F6CF24
:100580008BF0F7CF8CF0F8CF8DF084C0F6FF85C0EC
:10059000F7FF86C0F8FF0001875302E1885307E0A8
:1005A0000900F550EE6E8707F8E28807F9D78BC08F
:1005B000F6FF8CC0F7FF8DC0F8FF00018907000E21
:0605C0008A5BBFD71200A8
:0A05C600D9CFE6FFDACFE6FFE1CF60
:1005D000D9FFE2CFDAFFAC6AAB6AFD0EDBB0AC88C4
:1005E000DBA202D0AC8CAB8CDBB4AC8EDBA602D031
:1005F000AB8801D0AB8ADBB8AC849E98DBBAAB8603
:10060000DBAC02D09D8A01D09D9A9E9ADBAE02D0CF
:100610009D8801D09D98FB0EDB50AF6EFB0EFC0E4B
:10062000DBCF18F018C017F0186A1750B06EAC8AFC
:10063000AB8E949C948EAC50100B04E0AC50800BAD
:1006400001E1948CE552E5CFDAFFE7CFD9FF120044
:10065000D9CFE6FFDACFE6FFE1CFD9FFE2CFDAFF6D
:10066000ACA2FED7FB0EDBCFF6FFFC0EDBCFF7FF15
:10067000FD0EDBCFF8FF0800F550E66EBFEC03F08F
:10068000E552D950FB0FE96EFF0EDA20EA6EEFCF8C
:10069000F6FFEE2AEFCFF7FF000EEE22EFCFF8FFC6
:1006A000EE220800F550DCE1E552E5CFDAFFE7CFB6
:0406B000D9FF12005C
:0C06B400506C6F70200053616C75742056
:1006C00000626F6E6A6F7572547556657578457401
:1006D00072654D6F6E416D69506F7572546F756ABA
:1006E0006F757273457441757373694166666963AA
:1006F00068657244755465787465436F6D6D654ABD
:1007000065546544656D616E64653F4F75696D61E3
:0207100069007E
:0E071200D9CFE6FFDACFE6FFE1CFD9FFE2CF85
:10072000DAFFE652F20E00018E17ABAC03D08E91C9
:10073000ABB08E81ABB48E85ABB28E87AE50DF6E20
:10074000DF50E552E552E5CFDAFFE7CFD9FF1200DF
:10075000FF0EE3501B6EEF0E01D0F30EE76EE72E97
:10076000AFEF03F00C0E1A6EE76AE72EB5EF03F059
:0E0770001A2EB4EF03F01B2EADEF03F01200B3
:02077E00D9CFD1
:10078000E6FFDACFE6FFE1CFD9FFE2CFDAFFACAC8C
:1007900004D0AC9000018EB3AC80FD0EDB50AD6E8A
:0C07A000E552E5CFDAFFE7CFD9FF1200E9
:0407AC00000EF36EDA
:1007B00000EE00F00D0E01D81200EA6002D0EE6AE1
:0C07C000FCD7F350E9601200EE6AFCD791
:0407CC001CEE00F02F
:1007D0002CEE00F0F86A0F9C94EC02F007EC00F0AD
:0807E0000FEC00F0FBD7120042
:020000040030CA
:0100010008F6
:00000001FF
